{
  "_format": "hh3-artifact-1",
  "contractName": "TransparentProxyFactory",
  "sourceName": "contracts/TransparentProxyFactory.sol",
  "abi": [
    {
      "inputs": [],
      "stateMutability": "nonpayable",
      "type": "constructor"
    },
    {
      "inputs": [],
      "name": "InvalidInitialization",
      "type": "error"
    },
    {
      "inputs": [],
      "name": "NotInitializing",
      "type": "error"
    },
    {
      "inputs": [
        {
          "internalType": "address",
          "name": "owner",
          "type": "address"
        }
      ],
      "name": "OwnableInvalidOwner",
      "type": "error"
    },
    {
      "inputs": [
        {
          "internalType": "address",
          "name": "account",
          "type": "address"
        }
      ],
      "name": "OwnableUnauthorizedAccount",
      "type": "error"
    },
    {
      "anonymous": false,
      "inputs": [
        {
          "indexed": true,
          "internalType": "address",
          "name": "seller",
          "type": "address"
        },
        {
          "indexed": true,
          "internalType": "uint256",
          "name": "actionId",
          "type": "uint256"
        },
        {
          "indexed": false,
          "internalType": "address",
          "name": "actionProxyAddress",
          "type": "address"
        },
        {
          "indexed": false,
          "internalType": "uint256",
          "name": "tokenId",
          "type": "uint256"
        }
      ],
      "name": "ActionCreated",
      "type": "event"
    },
    {
      "anonymous": false,
      "inputs": [
        {
          "indexed": false,
          "internalType": "uint64",
          "name": "version",
          "type": "uint64"
        }
      ],
      "name": "Initialized",
      "type": "event"
    },
    {
      "anonymous": false,
      "inputs": [
        {
          "indexed": true,
          "internalType": "address",
          "name": "previousOwner",
          "type": "address"
        },
        {
          "indexed": true,
          "internalType": "address",
          "name": "newOwner",
          "type": "address"
        }
      ],
      "name": "OwnershipTransferred",
      "type": "event"
    },
    {
      "inputs": [
        {
          "internalType": "address",
          "name": "tokenAddress",
          "type": "address"
        },
        {
          "internalType": "uint256",
          "name": "delay",
          "type": "uint256"
        },
        {
          "internalType": "uint256",
          "name": "duration",
          "type": "uint256"
        },
        {
          "internalType": "uint256",
          "name": "startPrice",
          "type": "uint256"
        },
        {
          "internalType": "uint256",
          "name": "tokenId",
          "type": "uint256"
        }
      ],
      "name": "createAction",
      "outputs": [],
      "stateMutability": "nonpayable",
      "type": "function"
    },
    {
      "inputs": [
        {
          "internalType": "address",
          "name": "_actionImplementation",
          "type": "address"
        }
      ],
      "name": "initalize",
      "outputs": [],
      "stateMutability": "nonpayable",
      "type": "function"
    },
    {
      "inputs": [],
      "name": "owner",
      "outputs": [
        {
          "internalType": "address",
          "name": "",
          "type": "address"
        }
      ],
      "stateMutability": "view",
      "type": "function"
    },
    {
      "inputs": [],
      "name": "renounceOwnership",
      "outputs": [],
      "stateMutability": "nonpayable",
      "type": "function"
    },
    {
      "inputs": [
        {
          "internalType": "address",
          "name": "newImplementation",
          "type": "address"
        }
      ],
      "name": "setAuctionImplementation",
      "outputs": [],
      "stateMutability": "nonpayable",
      "type": "function"
    },
    {
      "inputs": [
        {
          "internalType": "address",
          "name": "newOwner",
          "type": "address"
        }
      ],
      "name": "transferOwnership",
      "outputs": [],
      "stateMutability": "nonpayable",
      "type": "function"
    }
  ],
  "bytecode": "0x6080604052348015600e575f5ffd5b503380603357604051631e4fbdf760e01b81525f600482015260240160405180910390fd5b603a81603f565b50608e565b5f80546001600160a01b038381166001600160a01b0319831681178455604051919092169283917f8be0079c531659141344cd1fd0a4f28419497f9722a3daafe3b4186f6b6457e09190a35050565b61177d8061009b5f395ff3fe608060405234801561000f575f5ffd5b5060043610610060575f3560e01c806330683f3f14610064578063715018a6146100795780638da5cb5b146100815780638dc5fbf91461009f578063f2fde38b146100b2578063f9d37777146100c5575b5f5ffd5b6100776100723660046108c0565b6100d8565b005b6100776105dc565b5f54604080516001600160a01b039092168252519081900360200190f35b6100776100ad366004610900565b6105ef565b6100776100c0366004610900565b61076c565b6100776100d3366004610900565b6107a9565b6001600160a01b0385165f0361012d5760405162461bcd60e51b8152602060048201526015602482015274696e76616c696420746f6b656e206164647265737360581b60448201526064015b60405180910390fd5b5f83116101875760405162461bcd60e51b815260206004820152602260248201527f6475726174696f6e206d7573742062652067726561746572207468616e207a65604482015261726f60f01b6064820152608401610124565b5f82116101e25760405162461bcd60e51b8152602060048201526024808201527f73746172745072696365206d7573742062652067726561746572207468616e206044820152637a65726f60e01b6064820152608401610124565b5f811161023b5760405162461bcd60e51b815260206004820152602160248201527f746f6b656e4964206d7573742062652067726561746572207468616e207a65726044820152606f60f81b6064820152608401610124565b6040516331a9108f60e11b815260048101829052859033906001600160a01b03831690636352211e90602401602060405180830381865afa158015610282573d5f5f3e3d5ffd5b505050506040513d601f19601f820116820180604052508101906102a69190610922565b6001600160a01b0316146102e85760405162461bcd60e51b81526020600482015260096024820152683737ba1037bbb732b960b91b6044820152606401610124565b60405163020604bf60e21b81526004810183905230906001600160a01b0383169063081812fc90602401602060405180830381865afa15801561032d573d5f5f3e3d5ffd5b505050506040513d601f19601f820116820180604052508101906103519190610922565b6001600160a01b031614806103cd575060405163e985e9c560e01b81523360048201523060248201526001600160a01b0382169063e985e9c590604401602060405180830381865afa1580156103a9573d5f5f3e3d5ffd5b505050506040513d601f19601f820116820180604052508101906103cd919061093d565b6104085760405162461bcd60e51b815260206004820152600c60248201526b139bdd08185c1c1c9bdd995960a21b6044820152606401610124565b6002546001546040515f916001600160a01b03169033906104289061089f565b6001600160a01b039283168152911660208201526060604082018190525f90820152608001604051809103905ff080158015610466573d5f5f3e3d5ffd5b509050806001600160a01b03811663df8fa4303361048b5f546001600160a01b031690565b6040516001600160e01b031960e085901b1681526001600160a01b0392831660048201529082166024820152908c166044820152606481018b9052608481018a905260a4810189905260c4810188905260e48101869052610104015f604051808303815f87803b1580156104fd575f5ffd5b505af115801561050f573d5f5f3e3d5ffd5b5050604051632142170760e11b81523360048201526001600160a01b03848116602483015260448201899052871692506342842e0e91506064015f604051808303815f87803b158015610560575f5ffd5b505af1158015610572573d5f5f3e3d5ffd5b505060028054925090505f6105868361095c565b9091555050604080516001600160a01b038316815260208101879052849133917fa213e99d039879f1dc89b7fff19ff43d716392b62e292cc4014712f6c628f775910160405180910390a3505050505050505050565b6105e4610824565b6105ed5f610850565b565b7ff0c57e16840df040f15088dc2f81fe391c3923bec73e23a9662efc9c229c6a008054600160401b810460ff16159067ffffffffffffffff165f811580156106345750825b90505f8267ffffffffffffffff1660011480156106505750303b155b90508115801561065e575080155b1561067c5760405163f92ee8a960e01b815260040160405180910390fd5b845467ffffffffffffffff1916600117855583156106a657845460ff60401b1916600160401b1785555b6001600160a01b0386165f036106fe5760405162461bcd60e51b815260206004820152601e60248201527f696e76616c696420696d706c656d656e746174696f6e206164647265737300006044820152606401610124565b6001600281905580546001600160a01b0319166001600160a01b038816179055831561076457845460ff60401b19168555604051600181527fc7f505b2f371ae2175ee4913f4499e1f2633a7b5936321eed1cdaeb6115181d29060200160405180910390a15b505050505050565b610774610824565b6001600160a01b03811661079d57604051631e4fbdf760e01b81525f6004820152602401610124565b6107a681610850565b50565b6107b1610824565b6001600160a01b0381165f036108025760405162461bcd60e51b815260206004820152601660248201527534b73b30b634b21034b6b83632b6b2b73a30ba34b7b760511b6044820152606401610124565b600180546001600160a01b0319166001600160a01b0392909216919091179055565b5f546001600160a01b031633146105ed5760405163118cdaa760e01b8152336004820152602401610124565b5f80546001600160a01b038381166001600160a01b0319831681178455604051919092169283917f8be0079c531659141344cd1fd0a4f28419497f9722a3daafe3b4186f6b6457e09190a35050565b610dc78061098183390190565b6001600160a01b03811681146107a6575f5ffd5b5f5f5f5f5f60a086880312156108d4575f5ffd5b85356108df816108ac565b97602087013597506040870135966060810135965060800135945092505050565b5f60208284031215610910575f5ffd5b813561091b816108ac565b9392505050565b5f60208284031215610932575f5ffd5b815161091b816108ac565b5f6020828403121561094d575f5ffd5b8151801515811461091b575f5ffd5b5f6001820161097957634e487b7160e01b5f52601160045260245ffd5b506001019056fe60a0604052604051610dc7380380610dc783398101604081905261002291610369565b828161002e828261008c565b50508160405161003d9061032d565b6001600160a01b039091168152602001604051809103905ff080158015610066573d5f5f3e3d5ffd5b506001600160a01b031660805261008461007f60805190565b6100ea565b505050610450565b61009582610157565b6040516001600160a01b038316907fbc7cd75a20ee27fd9adebab32041f755214dbc6bffa90cc0225b39da2e5c2d3b905f90a28051156100de576100d982826101d5565b505050565b6100e6610248565b5050565b7f7e644d79422f17c01e4894b5f4f588d331ebfa28653d42ae832dc59e38c9798f6101295f516020610da75f395f51905f52546001600160a01b031690565b604080516001600160a01b03928316815291841660208301520160405180910390a161015481610269565b50565b806001600160a01b03163b5f0361019157604051634c9c8ce360e01b81526001600160a01b03821660048201526024015b60405180910390fd5b807f360894a13ba1a3210667c828492db98dca3e2076cc3735a920a3ca505d382bbc5b80546001600160a01b0319166001600160a01b039290921691909117905550565b60605f5f846001600160a01b0316846040516101f1919061043a565b5f60405180830381855af49150503d805f8114610229576040519150601f19603f3d011682016040523d82523d5f602084013e61022e565b606091505b50909250905061023f8583836102a6565b95945050505050565b34156102675760405163b398979f60e01b815260040160405180910390fd5b565b6001600160a01b03811661029257604051633173bdd160e11b81525f6004820152602401610188565b805f516020610da75f395f51905f526101b4565b6060826102bb576102b682610305565b6102fe565b81511580156102d257506001600160a01b0384163b155b156102fb57604051639996b31560e01b81526001600160a01b0385166004820152602401610188565b50805b9392505050565b80511561031457805160208201fd5b60405163d6bda27560e01b815260040160405180910390fd5b6104e6806108c183390190565b80516001600160a01b0381168114610350575f5ffd5b919050565b634e487b7160e01b5f52604160045260245ffd5b5f5f5f6060848603121561037b575f5ffd5b6103848461033a565b92506103926020850161033a565b60408501519092506001600160401b038111156103ad575f5ffd5b8401601f810186136103bd575f5ffd5b80516001600160401b038111156103d6576103d6610355565b604051601f8201601f19908116603f011681016001600160401b038111828210171561040457610404610355565b60405281815282820160200188101561041b575f5ffd5b8160208401602083015e5f602083830101528093505050509250925092565b5f82518060208501845e5f920191825250919050565b60805161045a6104675f395f6010015261045a5ff3fe608060405261000c61000e565b005b7f00000000000000000000000000000000000000000000000000000000000000006001600160a01b0316330361007a575f356001600160e01b03191663278f794360e11b14610070576040516334ad5dbb60e21b815260040160405180910390fd5b610078610082565b565b6100786100b0565b5f806100913660048184610302565b81019061009e919061033d565b915091506100ac82826100c0565b5050565b6100786100bb61011a565b610151565b6100c98261016f565b6040516001600160a01b038316907fbc7cd75a20ee27fd9adebab32041f755214dbc6bffa90cc0225b39da2e5c2d3b905f90a28051156101125761010d82826101ea565b505050565b6100ac61025c565b5f61014c7f360894a13ba1a3210667c828492db98dca3e2076cc3735a920a3ca505d382bbc546001600160a01b031690565b905090565b365f5f375f5f365f845af43d5f5f3e80801561016b573d5ff35b3d5ffd5b806001600160a01b03163b5f036101a957604051634c9c8ce360e01b81526001600160a01b03821660048201526024015b60405180910390fd5b7f360894a13ba1a3210667c828492db98dca3e2076cc3735a920a3ca505d382bbc80546001600160a01b0319166001600160a01b0392909216919091179055565b60605f5f846001600160a01b031684604051610206919061040e565b5f60405180830381855af49150503d805f811461023e576040519150601f19603f3d011682016040523d82523d5f602084013e610243565b606091505b509150915061025385838361027b565b95945050505050565b34156100785760405163b398979f60e01b815260040160405180910390fd5b6060826102905761028b826102da565b6102d3565b81511580156102a757506001600160a01b0384163b155b156102d057604051639996b31560e01b81526001600160a01b03851660048201526024016101a0565b50805b9392505050565b8051156102e957805160208201fd5b60405163d6bda27560e01b815260040160405180910390fd5b5f5f85851115610310575f5ffd5b8386111561031c575f5ffd5b5050820193919092039150565b634e487b7160e01b5f52604160045260245ffd5b5f5f6040838503121561034e575f5ffd5b82356001600160a01b0381168114610364575f5ffd5b9150602083013567ffffffffffffffff81111561037f575f5ffd5b8301601f8101851361038f575f5ffd5b803567ffffffffffffffff8111156103a9576103a9610329565b604051601f8201601f19908116603f0116810167ffffffffffffffff811182821017156103d8576103d8610329565b6040528181528282016020018710156103ef575f5ffd5b816020840160208301375f602083830101528093505050509250929050565b5f82518060208501845e5f92019182525091905056fea2646970667358221220a50a171252553d01b203f056484128a2d103a53b98d907f412e0791c767fc7b764736f6c634300081c00336080604052348015600e575f5ffd5b506040516104e63803806104e6833981016040819052602b9160b4565b806001600160a01b038116605857604051631e4fbdf760e01b81525f600482015260240160405180910390fd5b605f816065565b505060df565b5f80546001600160a01b038381166001600160a01b0319831681178455604051919092169283917f8be0079c531659141344cd1fd0a4f28419497f9722a3daafe3b4186f6b6457e09190a35050565b5f6020828403121560c3575f5ffd5b81516001600160a01b038116811460d8575f5ffd5b9392505050565b6103fa806100ec5f395ff3fe608060405260043610610049575f3560e01c8063715018a61461004d5780638da5cb5b146100635780639623609d1461008e578063ad3cb1cc146100a1578063f2fde38b146100de575b5f5ffd5b348015610058575f5ffd5b506100616100fd565b005b34801561006e575f5ffd5b505f546040516001600160a01b0390911681526020015b60405180910390f35b61006161009c366004610260565b610110565b3480156100ac575f5ffd5b506100d1604051806040016040528060058152602001640352e302e360dc1b81525081565b6040516100859190610365565b3480156100e9575f5ffd5b506100616100f836600461037e565b61017b565b6101056101bd565b61010e5f6101e9565b565b6101186101bd565b60405163278f794360e11b81526001600160a01b03841690634f1ef2869034906101489086908690600401610399565b5f604051808303818588803b15801561015f575f5ffd5b505af1158015610171573d5f5f3e3d5ffd5b5050505050505050565b6101836101bd565b6001600160a01b0381166101b157604051631e4fbdf760e01b81525f60048201526024015b60405180910390fd5b6101ba816101e9565b50565b5f546001600160a01b0316331461010e5760405163118cdaa760e01b81523360048201526024016101a8565b5f80546001600160a01b038381166001600160a01b0319831681178455604051919092169283917f8be0079c531659141344cd1fd0a4f28419497f9722a3daafe3b4186f6b6457e09190a35050565b6001600160a01b03811681146101ba575f5ffd5b634e487b7160e01b5f52604160045260245ffd5b5f5f5f60608486031215610272575f5ffd5b833561027d81610238565b9250602084013561028d81610238565b9150604084013567ffffffffffffffff8111156102a8575f5ffd5b8401601f810186136102b8575f5ffd5b803567ffffffffffffffff8111156102d2576102d261024c565b604051601f8201601f19908116603f0116810167ffffffffffffffff811182821017156103015761030161024c565b604052818152828201602001881015610318575f5ffd5b816020840160208301375f602083830101528093505050509250925092565b5f81518084528060208401602086015e5f602082860101526020601f19601f83011685010191505092915050565b602081525f6103776020830184610337565b9392505050565b5f6020828403121561038e575f5ffd5b813561037781610238565b6001600160a01b03831681526040602082018190525f906103bc90830184610337565b94935050505056fea26469706673582212202ef4353e034dcdb36d016d332b22b4362701657dd7e7b90f5bd4d0b2821899ec64736f6c634300081c0033b53127684a568b3173ae13b9f8a6016e243e63b6e8ee1178d6a717850b5d6103a2646970667358221220e931471e93a47441d094fa10c06bad5eec8cea5b6061c96252bfd5e79ed9f3f664736f6c634300081c0033",
  "linkReferences": {},
  "deployedLinkReferences": {},
  "immutableReferences": {},
  "inputSourceName": "project/contracts/TransparentProxyFactory.sol",
  "buildInfoId": "solc-0_8_28-c0a201cb0228e66f7a871e3305b5860738f0082f"
}