{
  "_format": "hh3-artifact-1",
  "contractName": "CZToken",
  "sourceName": "contracts/CZToken.sol",
  "abi": [
    {
      "inputs": [],
      "stateMutability": "nonpayable",
      "type": "constructor"
    },
    {
      "inputs": [],
      "name": "ERC721EnumerableForbiddenBatchMint",
      "type": "error"
    },
    {
      "inputs": [
        {
          "internalType": "address",
          "name": "sender",
          "type": "address"
        },
        {
          "internalType": "uint256",
          "name": "tokenId",
          "type": "uint256"
        },
        {
          "internalType": "address",
          "name": "owner",
          "type": "address"
        }
      ],
      "name": "ERC721IncorrectOwner",
      "type": "error"
    },
    {
      "inputs": [
        {
          "internalType": "address",
          "name": "operator",
          "type": "address"
        },
        {
          "internalType": "uint256",
          "name": "tokenId",
          "type": "uint256"
        }
      ],
      "name": "ERC721InsufficientApproval",
      "type": "error"
    },
    {
      "inputs": [
        {
          "internalType": "address",
          "name": "approver",
          "type": "address"
        }
      ],
      "name": "ERC721InvalidApprover",
      "type": "error"
    },
    {
      "inputs": [
        {
          "internalType": "address",
          "name": "operator",
          "type": "address"
        }
      ],
      "name": "ERC721InvalidOperator",
      "type": "error"
    },
    {
      "inputs": [
        {
          "internalType": "address",
          "name": "owner",
          "type": "address"
        }
      ],
      "name": "ERC721InvalidOwner",
      "type": "error"
    },
    {
      "inputs": [
        {
          "internalType": "address",
          "name": "receiver",
          "type": "address"
        }
      ],
      "name": "ERC721InvalidReceiver",
      "type": "error"
    },
    {
      "inputs": [
        {
          "internalType": "address",
          "name": "sender",
          "type": "address"
        }
      ],
      "name": "ERC721InvalidSender",
      "type": "error"
    },
    {
      "inputs": [
        {
          "internalType": "uint256",
          "name": "tokenId",
          "type": "uint256"
        }
      ],
      "name": "ERC721NonexistentToken",
      "type": "error"
    },
    {
      "inputs": [
        {
          "internalType": "address",
          "name": "owner",
          "type": "address"
        },
        {
          "internalType": "uint256",
          "name": "index",
          "type": "uint256"
        }
      ],
      "name": "ERC721OutOfBoundsIndex",
      "type": "error"
    },
    {
      "inputs": [
        {
          "internalType": "address",
          "name": "owner",
          "type": "address"
        }
      ],
      "name": "OwnableInvalidOwner",
      "type": "error"
    },
    {
      "inputs": [
        {
          "internalType": "address",
          "name": "account",
          "type": "address"
        }
      ],
      "name": "OwnableUnauthorizedAccount",
      "type": "error"
    },
    {
      "anonymous": false,
      "inputs": [
        {
          "indexed": true,
          "internalType": "address",
          "name": "owner",
          "type": "address"
        },
        {
          "indexed": true,
          "internalType": "address",
          "name": "approved",
          "type": "address"
        },
        {
          "indexed": true,
          "internalType": "uint256",
          "name": "tokenId",
          "type": "uint256"
        }
      ],
      "name": "Approval",
      "type": "event"
    },
    {
      "anonymous": false,
      "inputs": [
        {
          "indexed": true,
          "internalType": "address",
          "name": "owner",
          "type": "address"
        },
        {
          "indexed": true,
          "internalType": "address",
          "name": "operator",
          "type": "address"
        },
        {
          "indexed": false,
          "internalType": "bool",
          "name": "approved",
          "type": "bool"
        }
      ],
      "name": "ApprovalForAll",
      "type": "event"
    },
    {
      "anonymous": false,
      "inputs": [
        {
          "indexed": true,
          "internalType": "address",
          "name": "previousOwner",
          "type": "address"
        },
        {
          "indexed": true,
          "internalType": "address",
          "name": "newOwner",
          "type": "address"
        }
      ],
      "name": "OwnershipTransferred",
      "type": "event"
    },
    {
      "anonymous": false,
      "inputs": [
        {
          "indexed": true,
          "internalType": "address",
          "name": "from",
          "type": "address"
        },
        {
          "indexed": true,
          "internalType": "address",
          "name": "to",
          "type": "address"
        },
        {
          "indexed": true,
          "internalType": "uint256",
          "name": "tokenId",
          "type": "uint256"
        }
      ],
      "name": "Transfer",
      "type": "event"
    },
    {
      "inputs": [
        {
          "internalType": "address",
          "name": "to",
          "type": "address"
        },
        {
          "internalType": "uint256",
          "name": "tokenId",
          "type": "uint256"
        }
      ],
      "name": "approve",
      "outputs": [],
      "stateMutability": "nonpayable",
      "type": "function"
    },
    {
      "inputs": [
        {
          "internalType": "address",
          "name": "owner",
          "type": "address"
        }
      ],
      "name": "balanceOf",
      "outputs": [
        {
          "internalType": "uint256",
          "name": "",
          "type": "uint256"
        }
      ],
      "stateMutability": "view",
      "type": "function"
    },
    {
      "inputs": [
        {
          "internalType": "uint256",
          "name": "tokenId",
          "type": "uint256"
        }
      ],
      "name": "getApproved",
      "outputs": [
        {
          "internalType": "address",
          "name": "",
          "type": "address"
        }
      ],
      "stateMutability": "view",
      "type": "function"
    },
    {
      "inputs": [],
      "name": "getTokens",
      "outputs": [
        {
          "internalType": "uint8",
          "name": "",
          "type": "uint8"
        }
      ],
      "stateMutability": "view",
      "type": "function"
    },
    {
      "inputs": [
        {
          "internalType": "address",
          "name": "owner",
          "type": "address"
        },
        {
          "internalType": "address",
          "name": "operator",
          "type": "address"
        }
      ],
      "name": "isApprovedForAll",
      "outputs": [
        {
          "internalType": "bool",
          "name": "",
          "type": "bool"
        }
      ],
      "stateMutability": "view",
      "type": "function"
    },
    {
      "inputs": [
        {
          "internalType": "address",
          "name": "to",
          "type": "address"
        },
        {
          "internalType": "uint256",
          "name": "amount",
          "type": "uint256"
        }
      ],
      "name": "mint",
      "outputs": [],
      "stateMutability": "nonpayable",
      "type": "function"
    },
    {
      "inputs": [],
      "name": "name",
      "outputs": [
        {
          "internalType": "string",
          "name": "",
          "type": "string"
        }
      ],
      "stateMutability": "view",
      "type": "function"
    },
    {
      "inputs": [],
      "name": "owner",
      "outputs": [
        {
          "internalType": "address",
          "name": "",
          "type": "address"
        }
      ],
      "stateMutability": "view",
      "type": "function"
    },
    {
      "inputs": [
        {
          "internalType": "uint256",
          "name": "tokenId",
          "type": "uint256"
        }
      ],
      "name": "ownerOf",
      "outputs": [
        {
          "internalType": "address",
          "name": "",
          "type": "address"
        }
      ],
      "stateMutability": "view",
      "type": "function"
    },
    {
      "inputs": [],
      "name": "renounceOwnership",
      "outputs": [],
      "stateMutability": "nonpayable",
      "type": "function"
    },
    {
      "inputs": [],
      "name": "requestToken",
      "outputs": [],
      "stateMutability": "nonpayable",
      "type": "function"
    },
    {
      "inputs": [
        {
          "internalType": "address",
          "name": "from",
          "type": "address"
        },
        {
          "internalType": "address",
          "name": "to",
          "type": "address"
        },
        {
          "internalType": "uint256",
          "name": "tokenId",
          "type": "uint256"
        }
      ],
      "name": "safeTransferFrom",
      "outputs": [],
      "stateMutability": "nonpayable",
      "type": "function"
    },
    {
      "inputs": [
        {
          "internalType": "address",
          "name": "from",
          "type": "address"
        },
        {
          "internalType": "address",
          "name": "to",
          "type": "address"
        },
        {
          "internalType": "uint256",
          "name": "tokenId",
          "type": "uint256"
        },
        {
          "internalType": "bytes",
          "name": "data",
          "type": "bytes"
        }
      ],
      "name": "safeTransferFrom",
      "outputs": [],
      "stateMutability": "nonpayable",
      "type": "function"
    },
    {
      "inputs": [
        {
          "internalType": "address",
          "name": "operator",
          "type": "address"
        },
        {
          "internalType": "bool",
          "name": "approved",
          "type": "bool"
        }
      ],
      "name": "setApprovalForAll",
      "outputs": [],
      "stateMutability": "nonpayable",
      "type": "function"
    },
    {
      "inputs": [
        {
          "internalType": "bytes4",
          "name": "interfaceId",
          "type": "bytes4"
        }
      ],
      "name": "supportsInterface",
      "outputs": [
        {
          "internalType": "bool",
          "name": "",
          "type": "bool"
        }
      ],
      "stateMutability": "view",
      "type": "function"
    },
    {
      "inputs": [],
      "name": "symbol",
      "outputs": [
        {
          "internalType": "string",
          "name": "",
          "type": "string"
        }
      ],
      "stateMutability": "view",
      "type": "function"
    },
    {
      "inputs": [
        {
          "internalType": "uint256",
          "name": "index",
          "type": "uint256"
        }
      ],
      "name": "tokenByIndex",
      "outputs": [
        {
          "internalType": "uint256",
          "name": "",
          "type": "uint256"
        }
      ],
      "stateMutability": "view",
      "type": "function"
    },
    {
      "inputs": [
        {
          "internalType": "address",
          "name": "owner",
          "type": "address"
        },
        {
          "internalType": "uint256",
          "name": "index",
          "type": "uint256"
        }
      ],
      "name": "tokenOfOwnerByIndex",
      "outputs": [
        {
          "internalType": "uint256",
          "name": "",
          "type": "uint256"
        }
      ],
      "stateMutability": "view",
      "type": "function"
    },
    {
      "inputs": [
        {
          "internalType": "uint256",
          "name": "tokenId",
          "type": "uint256"
        }
      ],
      "name": "tokenURI",
      "outputs": [
        {
          "internalType": "string",
          "name": "",
          "type": "string"
        }
      ],
      "stateMutability": "view",
      "type": "function"
    },
    {
      "inputs": [
        {
          "internalType": "address",
          "name": "owner",
          "type": "address"
        }
      ],
      "name": "tokensOfOwner",
      "outputs": [
        {
          "internalType": "uint256[]",
          "name": "",
          "type": "uint256[]"
        }
      ],
      "stateMutability": "view",
      "type": "function"
    },
    {
      "inputs": [],
      "name": "totalSupply",
      "outputs": [
        {
          "internalType": "uint256",
          "name": "",
          "type": "uint256"
        }
      ],
      "stateMutability": "view",
      "type": "function"
    },
    {
      "inputs": [
        {
          "internalType": "address",
          "name": "from",
          "type": "address"
        },
        {
          "internalType": "address",
          "name": "to",
          "type": "address"
        },
        {
          "internalType": "uint256",
          "name": "tokenId",
          "type": "uint256"
        }
      ],
      "name": "transferFrom",
      "outputs": [],
      "stateMutability": "nonpayable",
      "type": "function"
    },
    {
      "inputs": [
        {
          "internalType": "address",
          "name": "newOwner",
          "type": "address"
        }
      ],
      "name": "transferOwnership",
      "outputs": [],
      "stateMutability": "nonpayable",
      "type": "function"
    }
  ],
  "bytecode": "0x608060405234801561000f575f5ffd5b50604080518082018252601181527021b434b732b9b2ad37b234b0b1a1b7b4b760791b6020808301919091528251808401909352600583526410d39693d160da1b9083015290338061007a57604051631e4fbdf760e01b81525f600482015260240160405180910390fd5b610083816100a5565b506001610090838261018c565b50600261009d828261018c565b505050610246565b5f80546001600160a01b038381166001600160a01b0319831681178455604051919092169283917f8be0079c531659141344cd1fd0a4f28419497f9722a3daafe3b4186f6b6457e09190a35050565b634e487b7160e01b5f52604160045260245ffd5b600181811c9082168061011c57607f821691505b60208210810361013a57634e487b7160e01b5f52602260045260245ffd5b50919050565b601f82111561018757805f5260205f20601f840160051c810160208510156101655750805b601f840160051c820191505b81811015610184575f8155600101610171565b50505b505050565b81516001600160401b038111156101a5576101a56100f4565b6101b9816101b38454610108565b84610140565b6020601f8211600181146101eb575f83156101d45750848201515b5f19600385901b1c1916600184901b178455610184565b5f84815260208120601f198516915b8281101561021a57878501518255602094850194600190920191016101fa565b508482101561023757868401515f19600387901b60f8161c191681555b50505050600190811b01905550565b61188c806102535f395ff3fe608060405234801561000f575f5ffd5b5060043610610148575f3560e01c80636352211e116100bf578063a22cb46511610079578063a22cb465146102a8578063aa6ca808146102bb578063b88d4fde146102d5578063c87b56dd146102e8578063e985e9c5146102fb578063f2fde38b1461030e575f5ffd5b80636352211e1461024257806370a0823114610255578063715018a6146102685780638462151c146102705780638da5cb5b1461029057806395d89b41146102a0575f5ffd5b806323b872dd1161011057806323b872dd146101db5780632f745c59146101ee57806340c10f191461020157806342842e0e146102145780634d7ec628146102275780634f6ccce71461022f575f5ffd5b806301ffc9a71461014c57806306fdde0314610174578063081812fc14610189578063095ea7b3146101b457806318160ddd146101c9575b5f5ffd5b61015f61015a36600461142f565b610321565b60405190151581526020015b60405180910390f35b61017c610331565b60405161016b9190611478565b61019c61019736600461148a565b6103c1565b6040516001600160a01b03909116815260200161016b565b6101c76101c23660046114b7565b6103e8565b005b6009545b60405190815260200161016b565b6101c76101e93660046114df565b6103f7565b6101cd6101fc3660046114b7565b610485565b6101c761020f3660046114b7565b6104e8565b6101c76102223660046114df565b610558565b6101c7610577565b6101cd61023d36600461148a565b6106d6565b61019c61025036600461148a565b61072b565b6101cd610263366004611519565b610735565b6101c761077a565b61028361027e366004611519565b61078d565b60405161016b9190611532565b5f546001600160a01b031661019c565b61017c610822565b6101c76102b6366004611574565b610831565b6102c361083c565b60405160ff909116815260200161016b565b6101c76102e33660046115c1565b610897565b61017c6102f636600461148a565b6108af565b61015f61030936600461169e565b610920565b6101c761031c366004611519565b61094d565b5f61032b8261098a565b92915050565b606060018054610340906116cf565b80601f016020809104026020016040519081016040528092919081815260200182805461036c906116cf565b80156103b75780601f1061038e576101008083540402835291602001916103b7565b820191905f5260205f20905b81548152906001019060200180831161039a57829003601f168201915b5050505050905090565b5f6103cb826109ae565b505f828152600560205260409020546001600160a01b031661032b565b6103f38282336109e6565b5050565b6001600160a01b03821661042557604051633250574960e11b81525f60048201526024015b60405180910390fd5b5f6104318383336109f3565b9050836001600160a01b0316816001600160a01b03161461047f576040516364283d7b60e01b81526001600160a01b038086166004830152602482018490528216604482015260640161041c565b50505050565b5f61048f83610735565b82106104c05760405163295f44f760e21b81526001600160a01b03841660048201526024810183905260440161041c565b506001600160a01b03919091165f908152600760209081526040808320938352929052205490565b6104f0610a07565b6001600160a01b0382165f0361053b5760405162461bcd60e51b815260206004820152601060248201526f34b73b30b634b2103932b1b2b4bb32b960811b604482015260640161041c565b6103f3338261054960095490565b610553919061171b565b610a33565b61057283838360405180602001604052805f815250610897565b505050565b335f908152600c602052604081205460ff16908190036105c45761059b6005610a4c565b6105a690600161172e565b335f908152600c60205260409020805460ff191660ff831617905590505b335f908152600d602052604090205460ff166104b06105e260095490565b1061062f5760405162461bcd60e51b815260206004820152601d60248201527f546865726520617265206e6f2072656d61696e696e6720746f6b656e73000000604482015260640161041c565b8160ff168160ff16106106975760405162461bcd60e51b815260206004820152602a60248201527f546865206e756d626572206f6620746f6b656e73206861732072656163686564604482015269081d1a19481b1a5b5a5d60b21b606482015260840161041c565b6106a281600161172e565b335f818152600d60205260409020805460ff191660ff93909316929092179091556009546103f3919061055390600161171b565b5f6106e060095490565b82106107085760405163295f44f760e21b81525f60048201526024810183905260440161041c565b6009828154811061071b5761071b611747565b905f5260205f2001549050919050565b5f61032b826109ae565b5f6001600160a01b03821661075f576040516322718ad960e21b81525f600482015260240161041c565b506001600160a01b03165f9081526004602052604090205490565b610782610a07565b61078b5f610adf565b565b60605f61079983610735565b90505f8167ffffffffffffffff8111156107b5576107b56115ad565b6040519080825280602002602001820160405280156107de578160200160208202803683370190505b5090505f5b8281101561081a576107f58582610485565b82828151811061080757610807611747565b60209081029190910101526001016107e3565b509392505050565b606060028054610340906116cf565b6103f3338383610b2e565b335f908152600c602052604081205460ff16806108925760405162461bcd60e51b8152602060048201526014602482015273383632b0b9b2903932b8bab2b9ba103a37b5b2b760611b604482015260640161041c565b919050565b6108a28484846103f7565b61047f3385858585610bcc565b60606108ba826109ae565b505f6108d060408051602081019091525f815290565b90505f8151116108ee5760405180602001604052805f815250610919565b806108f884610cf4565b604051602001610909929190611772565b6040516020818303038152906040525b9392505050565b6001600160a01b039182165f90815260066020908152604080832093909416825291909152205460ff1690565b610955610a07565b6001600160a01b03811661097e57604051631e4fbdf760e01b81525f600482015260240161041c565b61098781610adf565b50565b5f6001600160e01b0319821663780e9d6360e01b148061032b575061032b82610d84565b5f818152600360205260408120546001600160a01b03168061032b57604051637e27328960e01b81526004810184905260240161041c565b6105728383836001610dd3565b5f6109ff848484610ed7565b949350505050565b5f546001600160a01b0316331461078b5760405163118cdaa760e01b815233600482015260240161041c565b6103f3828260405180602001604052805f815250610fa2565b600b80545f9182610a5c83611786565b9190505550816103e84233600b54600143610a77919061179e565b40604051602001610ab3949392919093845260609290921b6bffffffffffffffffffffffff191660208401526034830152605482015260740190565b604051602081830303815290604052805190602001205f1c610ad591906117c5565b61032b91906117d8565b5f80546001600160a01b038381166001600160a01b0319831681178455604051919092169283917f8be0079c531659141344cd1fd0a4f28419497f9722a3daafe3b4186f6b6457e09190a35050565b6001600160a01b038216610b6057604051630b61174360e31b81526001600160a01b038316600482015260240161041c565b6001600160a01b038381165f81815260066020908152604080832094871680845294825291829020805460ff191686151590811790915591519182527f17307eab39ab6107e8899845ad3d59bd9653f200f220920489ca2b5937696c31910160405180910390a3505050565b6001600160a01b0383163b15610ced57604051630a85bd0160e11b81526001600160a01b0384169063150b7a0290610c0e9088908890879087906004016117eb565b6020604051808303815f875af1925050508015610c48575060408051601f3d908101601f19168201909252610c4591810190611827565b60015b610caf573d808015610c75576040519150601f19603f3d011682016040523d82523d5f602084013e610c7a565b606091505b5080515f03610ca757604051633250574960e11b81526001600160a01b038516600482015260240161041c565b805160208201fd5b6001600160e01b03198116630a85bd0160e11b14610ceb57604051633250574960e11b81526001600160a01b038516600482015260240161041c565b505b5050505050565b60605f610d0083610fb9565b60010190505f8167ffffffffffffffff811115610d1f57610d1f6115ad565b6040519080825280601f01601f191660200182016040528015610d49576020820181803683370190505b5090508181016020015b5f19016f181899199a1a9b1b9c1cb0b131b232b360811b600a86061a8153600a8504945084610d5357509392505050565b5f6001600160e01b031982166380ac58cd60e01b1480610db457506001600160e01b03198216635b5e139f60e01b145b8061032b57506301ffc9a760e01b6001600160e01b031983161461032b565b8080610de757506001600160a01b03821615155b15610ea8575f610df6846109ae565b90506001600160a01b03831615801590610e225750826001600160a01b0316816001600160a01b031614155b8015610e355750610e338184610920565b155b15610e5e5760405163a9fbf51f60e01b81526001600160a01b038416600482015260240161041c565b8115610ea65783856001600160a01b0316826001600160a01b03167f8c5be1e5ebec7d5bd14f71427d1e84f3dd0314c0f7b2291e5b200ac8c7c3b92560405160405180910390a45b505b50505f90815260056020526040902080546001600160a01b0319166001600160a01b0392909216919091179055565b5f5f610ee4858585611090565b90506001600160a01b038116610f4057610f3b84600980545f838152600a60205260408120829055600182018355919091527f6e1540171b6c0c960b71a7020d9f60077f6af931a8bbf590da0223dacf75c7af0155565b610f63565b846001600160a01b0316816001600160a01b031614610f6357610f638185611182565b6001600160a01b038516610f7f57610f7a846111ff565b6109ff565b846001600160a01b0316816001600160a01b0316146109ff576109ff85856112a6565b610fac83836112f4565b610572335f858585610bcc565b5f8072184f03e93ff9f4daa797ed6e38ed64bf6a1f0160401b8310610ff75772184f03e93ff9f4daa797ed6e38ed64bf6a1f0160401b830492506040015b6d04ee2d6d415b85acef81000000008310611023576d04ee2d6d415b85acef8100000000830492506020015b662386f26fc10000831061104157662386f26fc10000830492506010015b6305f5e1008310611059576305f5e100830492506008015b612710831061106d57612710830492506004015b6064831061107f576064830492506002015b600a831061032b5760010192915050565b5f828152600360205260408120546001600160a01b03908116908316156110bc576110bc818486611355565b6001600160a01b038116156110f6576110d75f855f5f610dd3565b6001600160a01b0381165f90815260046020526040902080545f190190555b6001600160a01b03851615611124576001600160a01b0385165f908152600460205260409020805460010190555b5f8481526003602052604080822080546001600160a01b0319166001600160a01b0389811691821790925591518793918516917fddf252ad1be2c89b69c2b068fc378daa952ba7f163c4a11628f55a4df523b3ef91a4949350505050565b5f61118c83610735565b5f838152600860209081526040808320546001600160a01b03881684526007909252909120919250908183146111e1575f83815260208281526040808320548584528184208190558352600890915290208290555b5f938452600860209081526040808620869055938552525081205550565b6009545f906112109060019061179e565b5f838152600a60205260408120546009805493945090928490811061123757611237611747565b905f5260205f2001549050806009838154811061125657611256611747565b5f918252602080832090910192909255828152600a9091526040808220849055858252812055600980548061128d5761128d611842565b600190038181905f5260205f20015f9055905550505050565b5f60016112b284610735565b6112bc919061179e565b6001600160a01b039093165f908152600760209081526040808320868452825280832085905593825260089052919091209190915550565b6001600160a01b03821661131d57604051633250574960e11b81525f600482015260240161041c565b5f61132983835f6109f3565b90506001600160a01b03811615610572576040516339e3563760e11b81525f600482015260240161041c565b6113608383836113b9565b610572576001600160a01b03831661138e57604051637e27328960e01b81526004810182905260240161041c565b60405163177e802f60e01b81526001600160a01b03831660048201526024810182905260440161041c565b5f6001600160a01b038316158015906109ff5750826001600160a01b0316846001600160a01b031614806113f257506113f28484610920565b806109ff5750505f908152600560205260409020546001600160a01b03908116911614919050565b6001600160e01b031981168114610987575f5ffd5b5f6020828403121561143f575f5ffd5b81356109198161141a565b5f81518084528060208401602086015e5f602082860101526020601f19601f83011685010191505092915050565b602081525f610919602083018461144a565b5f6020828403121561149a575f5ffd5b5035919050565b80356001600160a01b0381168114610892575f5ffd5b5f5f604083850312156114c8575f5ffd5b6114d1836114a1565b946020939093013593505050565b5f5f5f606084860312156114f1575f5ffd5b6114fa846114a1565b9250611508602085016114a1565b929592945050506040919091013590565b5f60208284031215611529575f5ffd5b610919826114a1565b602080825282518282018190525f918401906040840190835b8181101561156957835183526020938401939092019160010161154b565b509095945050505050565b5f5f60408385031215611585575f5ffd5b61158e836114a1565b9150602083013580151581146115a2575f5ffd5b809150509250929050565b634e487b7160e01b5f52604160045260245ffd5b5f5f5f5f608085870312156115d4575f5ffd5b6115dd856114a1565b93506115eb602086016114a1565b925060408501359150606085013567ffffffffffffffff81111561160d575f5ffd5b8501601f8101871361161d575f5ffd5b803567ffffffffffffffff811115611637576116376115ad565b604051601f8201601f19908116603f0116810167ffffffffffffffff81118282101715611666576116666115ad565b60405281815282820160200189101561167d575f5ffd5b816020840160208301375f6020838301015280935050505092959194509250565b5f5f604083850312156116af575f5ffd5b6116b8836114a1565b91506116c6602084016114a1565b90509250929050565b600181811c908216806116e357607f821691505b60208210810361170157634e487b7160e01b5f52602260045260245ffd5b50919050565b634e487b7160e01b5f52601160045260245ffd5b8082018082111561032b5761032b611707565b60ff818116838216019081111561032b5761032b611707565b634e487b7160e01b5f52603260045260245ffd5b5f81518060208401855e5f93019283525090919050565b5f6109ff611780838661175b565b8461175b565b5f6001820161179757611797611707565b5060010190565b8181038181111561032b5761032b611707565b634e487b7160e01b5f52601260045260245ffd5b5f826117d3576117d36117b1565b500490565b5f826117e6576117e66117b1565b500690565b6001600160a01b03858116825284166020820152604081018390526080606082018190525f9061181d9083018461144a565b9695505050505050565b5f60208284031215611837575f5ffd5b81516109198161141a565b634e487b7160e01b5f52603160045260245ffdfea26469706673582212206a741d04574a96b89810af157e2fd1fda5ad1af64a17de9a8261011a8de4439c64736f6c634300081c0033",
  "linkReferences": {},
  "deployedLinkReferences": {},
  "immutableReferences": {},
  "inputSourceName": "project/contracts/CZToken.sol",
  "buildInfoId": "solc-0_8_28-2240e3ccf64e14cd3fb1a18caf38b79a3908230e"
}