{
  "_format": "hh3-artifact-1",
  "contractName": "NFTAuction",
  "sourceName": "contracts/NFTAuction.sol",
  "abi": [
    {
      "inputs": [
        {
          "internalType": "uint256",
          "name": "highestPrice",
          "type": "uint256"
        },
        {
          "internalType": "address",
          "name": "payToken",
          "type": "address"
        }
      ],
      "name": "BidFailure",
      "type": "error"
    },
    {
      "inputs": [],
      "name": "InvalidInitialization",
      "type": "error"
    },
    {
      "inputs": [],
      "name": "NotInitializing",
      "type": "error"
    },
    {
      "inputs": [
        {
          "internalType": "address",
          "name": "owner",
          "type": "address"
        }
      ],
      "name": "OwnableInvalidOwner",
      "type": "error"
    },
    {
      "inputs": [
        {
          "internalType": "address",
          "name": "account",
          "type": "address"
        }
      ],
      "name": "OwnableUnauthorizedAccount",
      "type": "error"
    },
    {
      "inputs": [],
      "name": "ReentrancyGuardReentrantCall",
      "type": "error"
    },
    {
      "anonymous": false,
      "inputs": [
        {
          "indexed": true,
          "internalType": "address",
          "name": "seller",
          "type": "address"
        },
        {
          "indexed": true,
          "internalType": "uint256",
          "name": "tokenId",
          "type": "uint256"
        },
        {
          "indexed": false,
          "internalType": "address",
          "name": "nftContract",
          "type": "address"
        },
        {
          "indexed": false,
          "internalType": "uint256",
          "name": "duration",
          "type": "uint256"
        },
        {
          "indexed": false,
          "internalType": "uint256",
          "name": "actionId",
          "type": "uint256"
        }
      ],
      "name": "ActionCreated",
      "type": "event"
    },
    {
      "anonymous": false,
      "inputs": [
        {
          "indexed": true,
          "internalType": "address",
          "name": "receiver",
          "type": "address"
        },
        {
          "indexed": true,
          "internalType": "uint256",
          "name": "tokenId",
          "type": "uint256"
        },
        {
          "indexed": true,
          "internalType": "uint256",
          "name": "price",
          "type": "uint256"
        },
        {
          "indexed": false,
          "internalType": "address",
          "name": "payToken",
          "type": "address"
        }
      ],
      "name": "ActionEnd",
      "type": "event"
    },
    {
      "anonymous": false,
      "inputs": [
        {
          "indexed": true,
          "internalType": "address",
          "name": "bidder",
          "type": "address"
        },
        {
          "indexed": false,
          "internalType": "uint256",
          "name": "price",
          "type": "uint256"
        },
        {
          "indexed": false,
          "internalType": "address",
          "name": "payToken",
          "type": "address"
        }
      ],
      "name": "BidPlaced",
      "type": "event"
    },
    {
      "anonymous": false,
      "inputs": [
        {
          "indexed": false,
          "internalType": "uint64",
          "name": "version",
          "type": "uint64"
        }
      ],
      "name": "Initialized",
      "type": "event"
    },
    {
      "anonymous": false,
      "inputs": [
        {
          "indexed": true,
          "internalType": "address",
          "name": "previousOwner",
          "type": "address"
        },
        {
          "indexed": true,
          "internalType": "address",
          "name": "newOwner",
          "type": "address"
        }
      ],
      "name": "OwnershipTransferred",
      "type": "event"
    },
    {
      "inputs": [
        {
          "internalType": "address",
          "name": "payToken",
          "type": "address"
        },
        {
          "internalType": "uint256",
          "name": "amount",
          "type": "uint256"
        }
      ],
      "name": "bidPlace",
      "outputs": [],
      "stateMutability": "payable",
      "type": "function"
    },
    {
      "inputs": [],
      "name": "endAction",
      "outputs": [],
      "stateMutability": "nonpayable",
      "type": "function"
    },
    {
      "inputs": [],
      "name": "getActionInfo",
      "outputs": [
        {
          "components": [
            {
              "internalType": "address",
              "name": "seller",
              "type": "address"
            },
            {
              "internalType": "uint256",
              "name": "startTime",
              "type": "uint256"
            },
            {
              "internalType": "uint256",
              "name": "duration",
              "type": "uint256"
            },
            {
              "internalType": "bool",
              "name": "ended",
              "type": "bool"
            },
            {
              "internalType": "address",
              "name": "highestBidder",
              "type": "address"
            },
            {
              "internalType": "uint256",
              "name": "highestPrice",
              "type": "uint256"
            },
            {
              "internalType": "uint256",
              "name": "startPrice",
              "type": "uint256"
            },
            {
              "internalType": "address",
              "name": "tokenContract",
              "type": "address"
            },
            {
              "internalType": "uint256",
              "name": "tokenId",
              "type": "uint256"
            },
            {
              "internalType": "address",
              "name": "payToken",
              "type": "address"
            },
            {
              "internalType": "uint256",
              "name": "actionId",
              "type": "uint256"
            }
          ],
          "internalType": "struct NFTAuction.ActionInfo",
          "name": "",
          "type": "tuple"
        }
      ],
      "stateMutability": "view",
      "type": "function"
    },
    {
      "inputs": [],
      "name": "getSupportTokens",
      "outputs": [
        {
          "internalType": "address[]",
          "name": "",
          "type": "address[]"
        }
      ],
      "stateMutability": "view",
      "type": "function"
    },
    {
      "inputs": [
        {
          "internalType": "address",
          "name": "seller",
          "type": "address"
        },
        {
          "internalType": "address",
          "name": "admin",
          "type": "address"
        },
        {
          "internalType": "address",
          "name": "tokenAddress",
          "type": "address"
        },
        {
          "internalType": "uint256",
          "name": "delay",
          "type": "uint256"
        },
        {
          "internalType": "uint256",
          "name": "duration",
          "type": "uint256"
        },
        {
          "internalType": "uint256",
          "name": "startPrice",
          "type": "uint256"
        },
        {
          "internalType": "uint256",
          "name": "tokenId",
          "type": "uint256"
        },
        {
          "internalType": "uint256",
          "name": "actionId",
          "type": "uint256"
        }
      ],
      "name": "initialize",
      "outputs": [],
      "stateMutability": "nonpayable",
      "type": "function"
    },
    {
      "inputs": [
        {
          "internalType": "address",
          "name": "",
          "type": "address"
        },
        {
          "internalType": "address",
          "name": "",
          "type": "address"
        },
        {
          "internalType": "uint256",
          "name": "",
          "type": "uint256"
        },
        {
          "internalType": "bytes",
          "name": "",
          "type": "bytes"
        }
      ],
      "name": "onERC721Received",
      "outputs": [
        {
          "internalType": "bytes4",
          "name": "",
          "type": "bytes4"
        }
      ],
      "stateMutability": "pure",
      "type": "function"
    },
    {
      "inputs": [],
      "name": "owner",
      "outputs": [
        {
          "internalType": "address",
          "name": "",
          "type": "address"
        }
      ],
      "stateMutability": "view",
      "type": "function"
    },
    {
      "inputs": [
        {
          "internalType": "address",
          "name": "receiver",
          "type": "address"
        },
        {
          "internalType": "address",
          "name": "payToken",
          "type": "address"
        },
        {
          "internalType": "uint256",
          "name": "amount",
          "type": "uint256"
        }
      ],
      "name": "refund",
      "outputs": [],
      "stateMutability": "nonpayable",
      "type": "function"
    },
    {
      "inputs": [],
      "name": "renounceOwnership",
      "outputs": [],
      "stateMutability": "nonpayable",
      "type": "function"
    },
    {
      "inputs": [
        {
          "internalType": "address",
          "name": "payToken",
          "type": "address"
        },
        {
          "internalType": "address",
          "name": "priceFeed",
          "type": "address"
        }
      ],
      "name": "setToken",
      "outputs": [],
      "stateMutability": "nonpayable",
      "type": "function"
    },
    {
      "inputs": [
        {
          "internalType": "address",
          "name": "newOwner",
          "type": "address"
        }
      ],
      "name": "transferOwnership",
      "outputs": [],
      "stateMutability": "nonpayable",
      "type": "function"
    }
  ],
  "bytecode": "0x6080604052348015600e575f5ffd5b50611af18061001c5f395ff3fe60806040526004361061009a575f3560e01c8063715018a611610062578063715018a61461015057806382ad6f35146101645780638da5cb5b14610183578063931f3a4e146101c9578063df8fa430146101ea578063f2fde38b14610209575f5ffd5b80630b0946a51461009e578063150b7a02146100b45780631da26a8b146100fd57806339cdfb2b1461011c578063480d77481461013d575b5f5ffd5b3480156100a9575f5ffd5b506100b2610228565b005b3480156100bf575f5ffd5b506100df6100ce3660046115f8565b630a85bd0160e11b95945050505050565b6040516001600160e01b031990911681526020015b60405180910390f35b348015610108575f5ffd5b506100b261011736600461168d565b6104da565b348015610127575f5ffd5b50610130610539565b6040516100f491906116be565b6100b261014b366004611709565b610599565b34801561015b575f5ffd5b506100b2610997565b34801561016f575f5ffd5b506100b261017e366004611731565b6109aa565b34801561018e575f5ffd5b507f9016d09d72d40fdae2fd8ceac6b6234c7706214fd39c1cd1e609a0528c199300546040516001600160a01b0390911681526020016100f4565b3480156101d4575f5ffd5b506101dd610b83565b6040516100f4919061176b565b3480156101f5575f5ffd5b506100b2610204366004611827565b610c7d565b348015610214575f5ffd5b506100b2610223366004611893565b611124565b5f546001600160a01b031633146102745760405162461bcd60e51b815260206004820152600b60248201526a37b7363c9039b2b63632b960a91b60448201526064015b60405180910390fd5b6001544210156102c65760405162461bcd60e51b815260206004820152601e60248201527f5468652061756374696f6e206861736e27742073746172746564207965740000604482015260640161026b565b60035460ff1615806102e6575060025460015442916102e4916118c7565b105b6103255760405162461bcd60e51b815260206004820152601060248201526f151a19481858dd1a5bdb88195b99195960821b604482015260640161026b565b6006546003546001600160a01b0391821691610100909104166103f9575f54600754604051632142170760e11b81523060048201526001600160a01b0392831660248201526044810191909152908216906342842e0e906064015f604051808303815f87803b158015610396575f5ffd5b505af11580156103a8573d5f5f3e3d5ffd5b50506007545f80546040518281529194509192506001600160a01b03909116907f801f2a0ef37c24a2cd52c968405d9ecbed62005134163614d7adc39b87b5d861906020015b60405180910390a450565b600354600754604051632142170760e11b81523060048201526101009092046001600160a01b03908116602484015260448301919091528216906342842e0e906064015f604051808303815f87803b158015610453575f5ffd5b505af1158015610465573d5f5f3e3d5ffd5b50505f5460085460045461048994506001600160a01b0392831693509116906109aa565b6004546007546003546008546040516001600160a01b03918216815261010090920416907f801f2a0ef37c24a2cd52c968405d9ecbed62005134163614d7adc39b87b5d861906020016103ee565b50565b6104e261115e565b600154421061052b5760405162461bcd60e51b81526020600482015260156024820152742a34329030bab1ba34b7b7103430b9903132b3bab760591b604482015260640161026b565b61053582826111b9565b5050565b6060600b80548060200260200160405190810160405280929190818152602001828054801561058f57602002820191905f5260205f20905b81546001600160a01b03168152600190910190602001808311610571575b5050505050905090565b6001544210156105eb5760405162461bcd60e51b815260206004820152601e60248201527f5468652061756374696f6e206861736e27742073746172746564207965740000604482015260640161026b565b60035460ff16158061060b57506002546001544291610609916118c7565b105b61064a5760405162461bcd60e51b815260206004820152601060248201526f151a19481858dd1a5bdb88195b99195960821b604482015260640161026b565b5f546001600160a01b031633036106a35760405162461bcd60e51b815260206004820181905260248201527f5468652073656c6c6572206973206e6f7420616c6c6f77656420746f20626964604482015260640161026b565b5f6001600160a01b0383168103610702575034818110156106fd5760405162461bcd60e51b8152602060048201526014602482015273496e73756666696369656e742062616c616e636560601b604482015260640161026b565b6107c4565b604051636eb1769f60e11b815233600482015230602482015283906001600160a01b0382169063dd62ed3e90604401602060405180830381865afa15801561074c573d5f5f3e3d5ffd5b505050506040513d601f19601f8201168201806040525081019061077091906118da565b9150828210156107c25760405162461bcd60e51b815260206004820152601a60248201527f455243323020616c6c6f77616e6365206e6f7420656e6f756768000000000000604482015260640161026b565b505b5f6107cf8484611297565b90505f6107da611429565b905080821161080e576040516346afb41360e01b8152600481018290526001600160a01b038616602482015260440161026b565b6001600160a01b038516156108dc576040516323b872dd60e01b8152336004820152306024820152604481018590525f906001600160a01b038716906323b872dd906064016020604051808303815f875af115801561086f573d5f5f3e3d5ffd5b505050506040513d601f19601f8201168201806040525081019061089391906118f1565b9050806108da5760405162461bcd60e51b8152602060048201526015602482015274115490cc8c081d1c985b9cd9995c8819985a5b1959605a1b604482015260640161026b565b505b60035461010090046001600160a01b03161561091757600354600854600454610917926001600160a01b0361010090910481169216906109aa565b60038054610100600160a81b031916336101008102919091179091556004839055600880546001600160a01b0319166001600160a01b0388169081179091556040805185815260208101929092527f6f25148c4fd0f2b2e4d416a26d37d4376c0b65a426b57a537356a5e1e9d03fda910160405180910390a25050505050565b61099f61115e565b6109a85f611466565b565b6109b26114d6565b6001600160a01b0383165f03610a0a5760405162461bcd60e51b815260206004820152601860248201527f696e76616c696420726563656976657220616464726573730000000000000000604482015260640161026b565b5f8111610a595760405162461bcd60e51b815260206004820181905260248201527f616d6f756e74206d7573742062652067726561746572207468616e207a65726f604482015260640161026b565b6001600160a01b0382165f03610aa2576040516001600160a01b0384169082156108fc029083905f818181858888f19350505050158015610a9c573d5f5f3e3d5ffd5b50610b55565b60405163a9059cbb60e01b81526001600160a01b038481166004830152602482018390525f919084169063a9059cbb906044016020604051808303815f875af1158015610af1573d5f5f3e3d5ffd5b505050506040513d601f19601f82011682018060405250810190610b1591906118f1565b905080610b535760405162461bcd60e51b815260206004820152600c60248201526b1c99599d5b990819985a5b1960a21b604482015260640161026b565b505b610b7e60017f9b779b17422d0df92223018b32b4d1fa46e071723d6817e2486d003becc55f0055565b505050565b610bfb6040518061016001604052805f6001600160a01b031681526020015f81526020015f81526020015f151581526020015f6001600160a01b031681526020015f81526020015f81526020015f6001600160a01b031681526020015f81526020015f6001600160a01b031681526020015f81525090565b5060408051610160810182525f546001600160a01b03908116825260015460208301526002549282019290925260035460ff811615156060830152610100908190048316608083015260045460a083015260055460c0830152600654831660e08301526007549082015260085490911661012082015260095461014082015290565b5f610c86611546565b805490915060ff600160401b820416159067ffffffffffffffff165f81158015610cad5750825b90505f8267ffffffffffffffff166001148015610cc95750303b155b905081158015610cd7575080155b15610cf55760405163f92ee8a960e01b815260040160405180910390fd5b845467ffffffffffffffff191660011785558315610d1f57845460ff60401b1916600160401b1785555b610d288c61156e565b610d3061157f565b6001600160a01b038d16610d775760405162461bcd60e51b815260206004820152600e60248201526d34b73b30b634b21039b2b63632b960911b604482015260640161026b565b6001600160a01b038b16610dc55760405162461bcd60e51b8152602060048201526015602482015274696e76616c696420746f6b656e206164647265737360581b604482015260640161026b565b5f8911610e1f5760405162461bcd60e51b815260206004820152602260248201527f6475726174696f6e206d7573742062652067726561746572207468616e207a65604482015261726f60f01b606482015260840161026b565b5f8811610e7a5760405162461bcd60e51b8152602060048201526024808201527f73746172745072696365206d7573742062652067726561746572207468616e206044820152637a65726f60e01b606482015260840161026b565b5f8711610ed35760405162461bcd60e51b815260206004820152602160248201527f746f6b656e4964206d7573742062652067726561746572207468616e207a65726044820152606f60f81b606482015260840161026b565b6040518061016001604052808e6001600160a01b031681526020018b42610efa91906118c7565b81526020018a81526020015f151581526020015f6001600160a01b031681526020015f81526020018981526020018c6001600160a01b031681526020018881526020015f6001600160a01b03168152602001878152505f5f820151815f015f6101000a8154816001600160a01b0302191690836001600160a01b0316021790555060208201518160010155604082015181600201556060820151816003015f6101000a81548160ff02191690831515021790555060808201518160030160016101000a8154816001600160a01b0302191690836001600160a01b0316021790555060a0820151816004015560c0820151816005015560e0820151816006015f6101000a8154816001600160a01b0302191690836001600160a01b031602179055506101008201518160070155610120820151816008015f6101000a8154816001600160a01b0302191690836001600160a01b03160217905550610140820151816009015590505061107f5f73694aa1769357215de4fac081bf1f309adc3253066111b9565b604080516001600160a01b038d81168252602082018c905291810188905288918f16907f7d72edbb26d1d9392b4692d47bac16a0d21b237646db0ae02e1f342be38dd78a9060600160405180910390a3831561111557845460ff60401b19168555604051600181527fc7f505b2f371ae2175ee4913f4499e1f2633a7b5936321eed1cdaeb6115181d29060200160405180910390a15b50505050505050505050505050565b61112c61115e565b6001600160a01b03811661115557604051631e4fbdf760e01b81525f600482015260240161026b565b6104d781611466565b336111907f9016d09d72d40fdae2fd8ceac6b6234c7706214fd39c1cd1e609a0528c199300546001600160a01b031690565b6001600160a01b0316146109a85760405163118cdaa760e01b815233600482015260240161026b565b6001600160a01b0381166112015760405162461bcd60e51b815260206004820152600f60248201526e696e76616c6964206164647265737360881b604482015260640161026b565b6001600160a01b038281165f908152600a60205260409020541661126a57600b80546001810182555f919091527f0175b7a638427703f0dbe7bb9bbf987a2551717b34e79f33b5b1008d1fa01db90180546001600160a01b0319166001600160a01b0384161790555b6001600160a01b039182165f908152600a6020526040902080546001600160a01b03191691909216179055565b5f815f036112a657505f611423565b6001600160a01b038084165f908152600a602052604090205416806113035760405162461bcd60e51b81526020600482015260136024820152721b9bdd08199bdd5b99081c1c9a58d951995959606a1b604482015260640161026b565b5f816001600160a01b031663313ce5676040518163ffffffff1660e01b8152600401602060405180830381865afa158015611340573d5f5f3e3d5ffd5b505050506040513d601f19601f820116820180604052508101906113649190611910565b60ff1690505f826001600160a01b031663feaf968c6040518163ffffffff1660e01b815260040160a060405180830381865afa1580156113a6573d5f5f3e3d5ffd5b505050506040513d601f19601f820116820180604052508101906113ca9190611949565b5091935083925050506001600160a01b0387165f03611418576113ee83600c6118c7565b6113f990600a611a7a565b6114038783611a85565b61140d9190611a9c565b945050505050611423565b6113f983600a611a7a565b92915050565b6005546003545f919061010090046001600160a01b03161561144a57506004545b600854611460906001600160a01b031682611297565b91505090565b7f9016d09d72d40fdae2fd8ceac6b6234c7706214fd39c1cd1e609a0528c19930080546001600160a01b031981166001600160a01b03848116918217845560405192169182907f8be0079c531659141344cd1fd0a4f28419497f9722a3daafe3b4186f6b6457e0905f90a3505050565b7f9b779b17422d0df92223018b32b4d1fa46e071723d6817e2486d003becc55f0080546001190161151a57604051633ee5aeb560e01b815260040160405180910390fd5b60029055565b60017f9b779b17422d0df92223018b32b4d1fa46e071723d6817e2486d003becc55f0055565b5f807ff0c57e16840df040f15088dc2f81fe391c3923bec73e23a9662efc9c229c6a00611423565b61157661158f565b6104d7816115b4565b61158761158f565b6109a86115bc565b6115976115c4565b6109a857604051631afcd79f60e31b815260040160405180910390fd5b61112c61158f565b61152061158f565b5f6115cd611546565b54600160401b900460ff16919050565b80356001600160a01b03811681146115f3575f5ffd5b919050565b5f5f5f5f5f6080868803121561160c575f5ffd5b611615866115dd565b9450611623602087016115dd565b935060408601359250606086013567ffffffffffffffff811115611645575f5ffd5b8601601f81018813611655575f5ffd5b803567ffffffffffffffff81111561166b575f5ffd5b88602082840101111561167c575f5ffd5b959894975092955050506020019190565b5f5f6040838503121561169e575f5ffd5b6116a7836115dd565b91506116b5602084016115dd565b90509250929050565b602080825282518282018190525f918401906040840190835b818110156116fe5783516001600160a01b03168352602093840193909201916001016116d7565b509095945050505050565b5f5f6040838503121561171a575f5ffd5b611723836115dd565b946020939093013593505050565b5f5f5f60608486031215611743575f5ffd5b61174c846115dd565b925061175a602085016115dd565b929592945050506040919091013590565b81516001600160a01b031681526101608101602083015160208301526040830151604083015260608301516117a4606084018215159052565b5060808301516117bf60808401826001600160a01b03169052565b5060a083015160a083015260c083015160c083015260e08301516117ee60e08401826001600160a01b03169052565b506101008301516101008301526101208301516118176101208401826001600160a01b03169052565b5061014092830151919092015290565b5f5f5f5f5f5f5f5f610100898b03121561183f575f5ffd5b611848896115dd565b975061185660208a016115dd565b965061186460408a016115dd565b979a96995096976060810135975060808101359660a0820135965060c0820135955060e0909101359350915050565b5f602082840312156118a3575f5ffd5b6118ac826115dd565b9392505050565b634e487b7160e01b5f52601160045260245ffd5b80820180821115611423576114236118b3565b5f602082840312156118ea575f5ffd5b5051919050565b5f60208284031215611901575f5ffd5b815180151581146118ac575f5ffd5b5f60208284031215611920575f5ffd5b815160ff811681146118ac575f5ffd5b805169ffffffffffffffffffff811681146115f3575f5ffd5b5f5f5f5f5f60a0868803121561195d575f5ffd5b61196686611930565b6020870151604088015160608901519297509095509350915061198b60808701611930565b90509295509295909350565b6001815b60018411156119d2578085048111156119b6576119b66118b3565b60018416156119c457908102905b60019390931c92800261199b565b935093915050565b5f826119e857506001611423565b816119f457505f611423565b8160018114611a0a5760028114611a1457611a30565b6001915050611423565b60ff841115611a2557611a256118b3565b50506001821b611423565b5060208310610133831016604e8410600b8410161715611a53575081810a611423565b611a5f5f198484611997565b805f1904821115611a7257611a726118b3565b029392505050565b5f6118ac83836119da565b8082028115828204841417611423576114236118b3565b5f82611ab657634e487b7160e01b5f52601260045260245ffd5b50049056fea2646970667358221220aced09816614838dcb9ee9159583d7c745bba6963294aba0b9294187b710c6eb64736f6c634300081c0033",
  "linkReferences": {},
  "deployedLinkReferences": {},
  "immutableReferences": {},
  "inputSourceName": "project/contracts/NFTAuction.sol",
  "buildInfoId": "solc-0_8_28-5d6e4a3726305696912c7e658311c31a16aefd6a"
}