{
  "_format": "hh3-artifact-1",
  "contractName": "CZToken",
  "sourceName": "contracts/CZToken.sol",
  "abi": [
    {
      "inputs": [],
      "stateMutability": "nonpayable",
      "type": "constructor"
    },
    {
      "inputs": [],
      "name": "ERC721EnumerableForbiddenBatchMint",
      "type": "error"
    },
    {
      "inputs": [
        {
          "internalType": "address",
          "name": "sender",
          "type": "address"
        },
        {
          "internalType": "uint256",
          "name": "tokenId",
          "type": "uint256"
        },
        {
          "internalType": "address",
          "name": "owner",
          "type": "address"
        }
      ],
      "name": "ERC721IncorrectOwner",
      "type": "error"
    },
    {
      "inputs": [
        {
          "internalType": "address",
          "name": "operator",
          "type": "address"
        },
        {
          "internalType": "uint256",
          "name": "tokenId",
          "type": "uint256"
        }
      ],
      "name": "ERC721InsufficientApproval",
      "type": "error"
    },
    {
      "inputs": [
        {
          "internalType": "address",
          "name": "approver",
          "type": "address"
        }
      ],
      "name": "ERC721InvalidApprover",
      "type": "error"
    },
    {
      "inputs": [
        {
          "internalType": "address",
          "name": "operator",
          "type": "address"
        }
      ],
      "name": "ERC721InvalidOperator",
      "type": "error"
    },
    {
      "inputs": [
        {
          "internalType": "address",
          "name": "owner",
          "type": "address"
        }
      ],
      "name": "ERC721InvalidOwner",
      "type": "error"
    },
    {
      "inputs": [
        {
          "internalType": "address",
          "name": "receiver",
          "type": "address"
        }
      ],
      "name": "ERC721InvalidReceiver",
      "type": "error"
    },
    {
      "inputs": [
        {
          "internalType": "address",
          "name": "sender",
          "type": "address"
        }
      ],
      "name": "ERC721InvalidSender",
      "type": "error"
    },
    {
      "inputs": [
        {
          "internalType": "uint256",
          "name": "tokenId",
          "type": "uint256"
        }
      ],
      "name": "ERC721NonexistentToken",
      "type": "error"
    },
    {
      "inputs": [
        {
          "internalType": "address",
          "name": "owner",
          "type": "address"
        },
        {
          "internalType": "uint256",
          "name": "index",
          "type": "uint256"
        }
      ],
      "name": "ERC721OutOfBoundsIndex",
      "type": "error"
    },
    {
      "inputs": [
        {
          "internalType": "address",
          "name": "owner",
          "type": "address"
        }
      ],
      "name": "OwnableInvalidOwner",
      "type": "error"
    },
    {
      "inputs": [
        {
          "internalType": "address",
          "name": "account",
          "type": "address"
        }
      ],
      "name": "OwnableUnauthorizedAccount",
      "type": "error"
    },
    {
      "anonymous": false,
      "inputs": [
        {
          "indexed": true,
          "internalType": "address",
          "name": "owner",
          "type": "address"
        },
        {
          "indexed": true,
          "internalType": "address",
          "name": "approved",
          "type": "address"
        },
        {
          "indexed": true,
          "internalType": "uint256",
          "name": "tokenId",
          "type": "uint256"
        }
      ],
      "name": "Approval",
      "type": "event"
    },
    {
      "anonymous": false,
      "inputs": [
        {
          "indexed": true,
          "internalType": "address",
          "name": "owner",
          "type": "address"
        },
        {
          "indexed": true,
          "internalType": "address",
          "name": "operator",
          "type": "address"
        },
        {
          "indexed": false,
          "internalType": "bool",
          "name": "approved",
          "type": "bool"
        }
      ],
      "name": "ApprovalForAll",
      "type": "event"
    },
    {
      "anonymous": false,
      "inputs": [
        {
          "indexed": true,
          "internalType": "address",
          "name": "previousOwner",
          "type": "address"
        },
        {
          "indexed": true,
          "internalType": "address",
          "name": "newOwner",
          "type": "address"
        }
      ],
      "name": "OwnershipTransferred",
      "type": "event"
    },
    {
      "anonymous": false,
      "inputs": [
        {
          "indexed": true,
          "internalType": "address",
          "name": "from",
          "type": "address"
        },
        {
          "indexed": true,
          "internalType": "address",
          "name": "to",
          "type": "address"
        },
        {
          "indexed": true,
          "internalType": "uint256",
          "name": "tokenId",
          "type": "uint256"
        }
      ],
      "name": "Transfer",
      "type": "event"
    },
    {
      "inputs": [
        {
          "internalType": "address",
          "name": "to",
          "type": "address"
        },
        {
          "internalType": "uint256",
          "name": "tokenId",
          "type": "uint256"
        }
      ],
      "name": "approve",
      "outputs": [],
      "stateMutability": "nonpayable",
      "type": "function"
    },
    {
      "inputs": [
        {
          "internalType": "address",
          "name": "owner",
          "type": "address"
        }
      ],
      "name": "balanceOf",
      "outputs": [
        {
          "internalType": "uint256",
          "name": "",
          "type": "uint256"
        }
      ],
      "stateMutability": "view",
      "type": "function"
    },
    {
      "inputs": [
        {
          "internalType": "uint256",
          "name": "tokenId",
          "type": "uint256"
        }
      ],
      "name": "getApproved",
      "outputs": [
        {
          "internalType": "address",
          "name": "",
          "type": "address"
        }
      ],
      "stateMutability": "view",
      "type": "function"
    },
    {
      "inputs": [],
      "name": "getTokens",
      "outputs": [
        {
          "internalType": "uint8",
          "name": "",
          "type": "uint8"
        }
      ],
      "stateMutability": "view",
      "type": "function"
    },
    {
      "inputs": [
        {
          "internalType": "address",
          "name": "owner",
          "type": "address"
        },
        {
          "internalType": "address",
          "name": "operator",
          "type": "address"
        }
      ],
      "name": "isApprovedForAll",
      "outputs": [
        {
          "internalType": "bool",
          "name": "",
          "type": "bool"
        }
      ],
      "stateMutability": "view",
      "type": "function"
    },
    {
      "inputs": [],
      "name": "name",
      "outputs": [
        {
          "internalType": "string",
          "name": "",
          "type": "string"
        }
      ],
      "stateMutability": "view",
      "type": "function"
    },
    {
      "inputs": [],
      "name": "owner",
      "outputs": [
        {
          "internalType": "address",
          "name": "",
          "type": "address"
        }
      ],
      "stateMutability": "view",
      "type": "function"
    },
    {
      "inputs": [
        {
          "internalType": "uint256",
          "name": "tokenId",
          "type": "uint256"
        }
      ],
      "name": "ownerOf",
      "outputs": [
        {
          "internalType": "address",
          "name": "",
          "type": "address"
        }
      ],
      "stateMutability": "view",
      "type": "function"
    },
    {
      "inputs": [],
      "name": "renounceOwnership",
      "outputs": [],
      "stateMutability": "nonpayable",
      "type": "function"
    },
    {
      "inputs": [],
      "name": "requestToken",
      "outputs": [],
      "stateMutability": "nonpayable",
      "type": "function"
    },
    {
      "inputs": [
        {
          "internalType": "address",
          "name": "from",
          "type": "address"
        },
        {
          "internalType": "address",
          "name": "to",
          "type": "address"
        },
        {
          "internalType": "uint256",
          "name": "tokenId",
          "type": "uint256"
        }
      ],
      "name": "safeTransferFrom",
      "outputs": [],
      "stateMutability": "nonpayable",
      "type": "function"
    },
    {
      "inputs": [
        {
          "internalType": "address",
          "name": "from",
          "type": "address"
        },
        {
          "internalType": "address",
          "name": "to",
          "type": "address"
        },
        {
          "internalType": "uint256",
          "name": "tokenId",
          "type": "uint256"
        },
        {
          "internalType": "bytes",
          "name": "data",
          "type": "bytes"
        }
      ],
      "name": "safeTransferFrom",
      "outputs": [],
      "stateMutability": "nonpayable",
      "type": "function"
    },
    {
      "inputs": [
        {
          "internalType": "address",
          "name": "operator",
          "type": "address"
        },
        {
          "internalType": "bool",
          "name": "approved",
          "type": "bool"
        }
      ],
      "name": "setApprovalForAll",
      "outputs": [],
      "stateMutability": "nonpayable",
      "type": "function"
    },
    {
      "inputs": [
        {
          "internalType": "bytes4",
          "name": "interfaceId",
          "type": "bytes4"
        }
      ],
      "name": "supportsInterface",
      "outputs": [
        {
          "internalType": "bool",
          "name": "",
          "type": "bool"
        }
      ],
      "stateMutability": "view",
      "type": "function"
    },
    {
      "inputs": [],
      "name": "symbol",
      "outputs": [
        {
          "internalType": "string",
          "name": "",
          "type": "string"
        }
      ],
      "stateMutability": "view",
      "type": "function"
    },
    {
      "inputs": [
        {
          "internalType": "uint256",
          "name": "index",
          "type": "uint256"
        }
      ],
      "name": "tokenByIndex",
      "outputs": [
        {
          "internalType": "uint256",
          "name": "",
          "type": "uint256"
        }
      ],
      "stateMutability": "view",
      "type": "function"
    },
    {
      "inputs": [
        {
          "internalType": "address",
          "name": "owner",
          "type": "address"
        },
        {
          "internalType": "uint256",
          "name": "index",
          "type": "uint256"
        }
      ],
      "name": "tokenOfOwnerByIndex",
      "outputs": [
        {
          "internalType": "uint256",
          "name": "",
          "type": "uint256"
        }
      ],
      "stateMutability": "view",
      "type": "function"
    },
    {
      "inputs": [
        {
          "internalType": "uint256",
          "name": "tokenId",
          "type": "uint256"
        }
      ],
      "name": "tokenURI",
      "outputs": [
        {
          "internalType": "string",
          "name": "",
          "type": "string"
        }
      ],
      "stateMutability": "view",
      "type": "function"
    },
    {
      "inputs": [
        {
          "internalType": "address",
          "name": "owner",
          "type": "address"
        }
      ],
      "name": "tokensOfOnwer",
      "outputs": [
        {
          "internalType": "uint256[]",
          "name": "",
          "type": "uint256[]"
        }
      ],
      "stateMutability": "view",
      "type": "function"
    },
    {
      "inputs": [],
      "name": "totalSupply",
      "outputs": [
        {
          "internalType": "uint256",
          "name": "",
          "type": "uint256"
        }
      ],
      "stateMutability": "view",
      "type": "function"
    },
    {
      "inputs": [
        {
          "internalType": "address",
          "name": "from",
          "type": "address"
        },
        {
          "internalType": "address",
          "name": "to",
          "type": "address"
        },
        {
          "internalType": "uint256",
          "name": "tokenId",
          "type": "uint256"
        }
      ],
      "name": "transferFrom",
      "outputs": [],
      "stateMutability": "nonpayable",
      "type": "function"
    },
    {
      "inputs": [
        {
          "internalType": "address",
          "name": "newOwner",
          "type": "address"
        }
      ],
      "name": "transferOwnership",
      "outputs": [],
      "stateMutability": "nonpayable",
      "type": "function"
    }
  ],
  "bytecode": "0x608060405234801561000f575f5ffd5b50604080518082018252601181527021b434b732b9b2ad37b234b0b1a1b7b4b760791b6020808301919091528251808401909352600583526410d39693d160da1b9083015290338061007a57604051631e4fbdf760e01b81525f600482015260240160405180910390fd5b610083816100a5565b506001610090838261018c565b50600261009d828261018c565b505050610246565b5f80546001600160a01b038381166001600160a01b0319831681178455604051919092169283917f8be0079c531659141344cd1fd0a4f28419497f9722a3daafe3b4186f6b6457e09190a35050565b634e487b7160e01b5f52604160045260245ffd5b600181811c9082168061011c57607f821691505b60208210810361013a57634e487b7160e01b5f52602260045260245ffd5b50919050565b601f82111561018757805f5260205f20601f840160051c810160208510156101655750805b601f840160051c820191505b81811015610184575f8155600101610171565b50505b505050565b81516001600160401b038111156101a5576101a56100f4565b6101b9816101b38454610108565b84610140565b6020601f8211600181146101eb575f83156101d45750848201515b5f19600385901b1c1916600184901b178455610184565b5f84815260208120601f198516915b8281101561021a57878501518255602094850194600190920191016101fa565b508482101561023757868401515f19600387901b60f8161c191681555b50505050600190811b01905550565b611804806102535f395ff3fe608060405234801561000f575f5ffd5b506004361061013d575f3560e01c806370a08231116100b4578063aa6ca80811610079578063aa6ca8081461027d578063b88d4fde14610297578063c87b56dd146102aa578063e6ace728146102bd578063e985e9c5146102dd578063f2fde38b146102f0575f5ffd5b806370a0823114610237578063715018a61461024a5780638da5cb5b1461025257806395d89b4114610262578063a22cb4651461026a575f5ffd5b806323b872dd1161010557806323b872dd146101d05780632f745c59146101e357806342842e0e146101f65780634d7ec628146102095780634f6ccce7146102115780636352211e14610224575f5ffd5b806301ffc9a71461014157806306fdde0314610169578063081812fc1461017e578063095ea7b3146101a957806318160ddd146101be575b5f5ffd5b61015461014f3660046113a7565b610303565b60405190151581526020015b60405180910390f35b610171610313565b60405161016091906113f0565b61019161018c366004611402565b6103a3565b6040516001600160a01b039091168152602001610160565b6101bc6101b736600461142f565b6103ca565b005b6009545b604051908152602001610160565b6101bc6101de366004611457565b6103d9565b6101c26101f136600461142f565b610467565b6101bc610204366004611457565b6104ca565b6101bc6104e9565b6101c261021f366004611402565b61064e565b610191610232366004611402565b6106a3565b6101c2610245366004611491565b6106ad565b6101bc6106f2565b5f546001600160a01b0316610191565b610171610705565b6101bc6102783660046114aa565b610714565b61028561071f565b60405160ff9091168152602001610160565b6101bc6102a53660046114f7565b61077a565b6101716102b8366004611402565b610792565b6102d06102cb366004611491565b610803565b60405161016091906115d4565b6101546102eb366004611616565b610898565b6101bc6102fe366004611491565b6108c5565b5f61030d82610902565b92915050565b60606001805461032290611647565b80601f016020809104026020016040519081016040528092919081815260200182805461034e90611647565b80156103995780601f1061037057610100808354040283529160200191610399565b820191905f5260205f20905b81548152906001019060200180831161037c57829003601f168201915b5050505050905090565b5f6103ad82610926565b505f828152600560205260409020546001600160a01b031661030d565b6103d582823361095e565b5050565b6001600160a01b03821661040757604051633250574960e11b81525f60048201526024015b60405180910390fd5b5f61041383833361096b565b9050836001600160a01b0316816001600160a01b031614610461576040516364283d7b60e01b81526001600160a01b03808616600483015260248201849052821660448201526064016103fe565b50505050565b5f610471836106ad565b82106104a25760405163295f44f760e21b81526001600160a01b0384166004820152602481018390526044016103fe565b506001600160a01b03919091165f908152600760209081526040808320938352929052205490565b6104e483838360405180602001604052805f81525061077a565b505050565b335f908152600c602052604081205460ff16908190036105365761050d600561097f565b610518906001611693565b335f908152600c60205260409020805460ff191660ff831617905590505b335f908152600d602052604090205460ff166104b061055460095490565b11156105a25760405162461bcd60e51b815260206004820152601d60248201527f546865726520617265206e6f2072656d61696e696e6720746f6b656e7300000060448201526064016103fe565b8160ff168160ff161061060a5760405162461bcd60e51b815260206004820152602a60248201527f546865206e756d626572206f6620746f6b656e73206861732072656163686564604482015269081d1a19481b1a5b5a5d60b21b60648201526084016103fe565b610615816001611693565b335f818152600d60205260409020805460ff191660ff93909316929092179091556009546103d591906106499060016116ac565b610a12565b5f61065860095490565b82106106805760405163295f44f760e21b81525f6004820152602481018390526044016103fe565b60098281548110610693576106936116bf565b905f5260205f2001549050919050565b5f61030d82610926565b5f6001600160a01b0382166106d7576040516322718ad960e21b81525f60048201526024016103fe565b506001600160a01b03165f9081526004602052604090205490565b6106fa610a2b565b6107035f610a57565b565b60606002805461032290611647565b6103d5338383610aa6565b335f908152600c602052604081205460ff16806107755760405162461bcd60e51b8152602060048201526014602482015273383632b0b9b2903932b8bab2b9ba103a37b5b2b760611b60448201526064016103fe565b919050565b6107858484846103d9565b6104613385858585610b44565b606061079d82610926565b505f6107b360408051602081019091525f815290565b90505f8151116107d15760405180602001604052805f8152506107fc565b806107db84610c6c565b6040516020016107ec9291906116ea565b6040516020818303038152906040525b9392505050565b60605f61080f836106ad565b90505f8167ffffffffffffffff81111561082b5761082b6114e3565b604051908082528060200260200182016040528015610854578160200160208202803683370190505b5090505f5b828110156108905761086b8582610467565b82828151811061087d5761087d6116bf565b6020908102919091010152600101610859565b509392505050565b6001600160a01b039182165f90815260066020908152604080832093909416825291909152205460ff1690565b6108cd610a2b565b6001600160a01b0381166108f657604051631e4fbdf760e01b81525f60048201526024016103fe565b6108ff81610a57565b50565b5f6001600160e01b0319821663780e9d6360e01b148061030d575061030d82610cfc565b5f818152600360205260408120546001600160a01b03168061030d57604051637e27328960e01b8152600481018490526024016103fe565b6104e48383836001610d4b565b5f610977848484610e4f565b949350505050565b600b80545f918261098f836116fe565b9190505550816103e84233600b546001436109aa9190611716565b406040516020016109e6949392919093845260609290921b6bffffffffffffffffffffffff191660208401526034830152605482015260740190565b604051602081830303815290604052805190602001205f1c610a08919061173d565b61030d9190611750565b6103d5828260405180602001604052805f815250610f1a565b5f546001600160a01b031633146107035760405163118cdaa760e01b81523360048201526024016103fe565b5f80546001600160a01b038381166001600160a01b0319831681178455604051919092169283917f8be0079c531659141344cd1fd0a4f28419497f9722a3daafe3b4186f6b6457e09190a35050565b6001600160a01b038216610ad857604051630b61174360e31b81526001600160a01b03831660048201526024016103fe565b6001600160a01b038381165f81815260066020908152604080832094871680845294825291829020805460ff191686151590811790915591519182527f17307eab39ab6107e8899845ad3d59bd9653f200f220920489ca2b5937696c31910160405180910390a3505050565b6001600160a01b0383163b15610c6557604051630a85bd0160e11b81526001600160a01b0384169063150b7a0290610b86908890889087908790600401611763565b6020604051808303815f875af1925050508015610bc0575060408051601f3d908101601f19168201909252610bbd9181019061179f565b60015b610c27573d808015610bed576040519150601f19603f3d011682016040523d82523d5f602084013e610bf2565b606091505b5080515f03610c1f57604051633250574960e11b81526001600160a01b03851660048201526024016103fe565b805160208201fd5b6001600160e01b03198116630a85bd0160e11b14610c6357604051633250574960e11b81526001600160a01b03851660048201526024016103fe565b505b5050505050565b60605f610c7883610f31565b60010190505f8167ffffffffffffffff811115610c9757610c976114e3565b6040519080825280601f01601f191660200182016040528015610cc1576020820181803683370190505b5090508181016020015b5f19016f181899199a1a9b1b9c1cb0b131b232b360811b600a86061a8153600a8504945084610ccb57509392505050565b5f6001600160e01b031982166380ac58cd60e01b1480610d2c57506001600160e01b03198216635b5e139f60e01b145b8061030d57506301ffc9a760e01b6001600160e01b031983161461030d565b8080610d5f57506001600160a01b03821615155b15610e20575f610d6e84610926565b90506001600160a01b03831615801590610d9a5750826001600160a01b0316816001600160a01b031614155b8015610dad5750610dab8184610898565b155b15610dd65760405163a9fbf51f60e01b81526001600160a01b03841660048201526024016103fe565b8115610e1e5783856001600160a01b0316826001600160a01b03167f8c5be1e5ebec7d5bd14f71427d1e84f3dd0314c0f7b2291e5b200ac8c7c3b92560405160405180910390a45b505b50505f90815260056020526040902080546001600160a01b0319166001600160a01b0392909216919091179055565b5f5f610e5c858585611008565b90506001600160a01b038116610eb857610eb384600980545f838152600a60205260408120829055600182018355919091527f6e1540171b6c0c960b71a7020d9f60077f6af931a8bbf590da0223dacf75c7af0155565b610edb565b846001600160a01b0316816001600160a01b031614610edb57610edb81856110fa565b6001600160a01b038516610ef757610ef284611177565b610977565b846001600160a01b0316816001600160a01b03161461097757610977858561121e565b610f24838361126c565b6104e4335f858585610b44565b5f8072184f03e93ff9f4daa797ed6e38ed64bf6a1f0160401b8310610f6f5772184f03e93ff9f4daa797ed6e38ed64bf6a1f0160401b830492506040015b6d04ee2d6d415b85acef81000000008310610f9b576d04ee2d6d415b85acef8100000000830492506020015b662386f26fc100008310610fb957662386f26fc10000830492506010015b6305f5e1008310610fd1576305f5e100830492506008015b6127108310610fe557612710830492506004015b60648310610ff7576064830492506002015b600a831061030d5760010192915050565b5f828152600360205260408120546001600160a01b0390811690831615611034576110348184866112cd565b6001600160a01b0381161561106e5761104f5f855f5f610d4b565b6001600160a01b0381165f90815260046020526040902080545f190190555b6001600160a01b0385161561109c576001600160a01b0385165f908152600460205260409020805460010190555b5f8481526003602052604080822080546001600160a01b0319166001600160a01b0389811691821790925591518793918516917fddf252ad1be2c89b69c2b068fc378daa952ba7f163c4a11628f55a4df523b3ef91a4949350505050565b5f611104836106ad565b5f838152600860209081526040808320546001600160a01b0388168452600790925290912091925090818314611159575f83815260208281526040808320548584528184208190558352600890915290208290555b5f938452600860209081526040808620869055938552525081205550565b6009545f9061118890600190611716565b5f838152600a6020526040812054600980549394509092849081106111af576111af6116bf565b905f5260205f200154905080600983815481106111ce576111ce6116bf565b5f918252602080832090910192909255828152600a90915260408082208490558582528120556009805480611205576112056117ba565b600190038181905f5260205f20015f9055905550505050565b5f600161122a846106ad565b6112349190611716565b6001600160a01b039093165f908152600760209081526040808320868452825280832085905593825260089052919091209190915550565b6001600160a01b03821661129557604051633250574960e11b81525f60048201526024016103fe565b5f6112a183835f61096b565b90506001600160a01b038116156104e4576040516339e3563760e11b81525f60048201526024016103fe565b6112d8838383611331565b6104e4576001600160a01b03831661130657604051637e27328960e01b8152600481018290526024016103fe565b60405163177e802f60e01b81526001600160a01b0383166004820152602481018290526044016103fe565b5f6001600160a01b038316158015906109775750826001600160a01b0316846001600160a01b0316148061136a575061136a8484610898565b806109775750505f908152600560205260409020546001600160a01b03908116911614919050565b6001600160e01b0319811681146108ff575f5ffd5b5f602082840312156113b7575f5ffd5b81356107fc81611392565b5f81518084528060208401602086015e5f602082860101526020601f19601f83011685010191505092915050565b602081525f6107fc60208301846113c2565b5f60208284031215611412575f5ffd5b5035919050565b80356001600160a01b0381168114610775575f5ffd5b5f5f60408385031215611440575f5ffd5b61144983611419565b946020939093013593505050565b5f5f5f60608486031215611469575f5ffd5b61147284611419565b925061148060208501611419565b929592945050506040919091013590565b5f602082840312156114a1575f5ffd5b6107fc82611419565b5f5f604083850312156114bb575f5ffd5b6114c483611419565b9150602083013580151581146114d8575f5ffd5b809150509250929050565b634e487b7160e01b5f52604160045260245ffd5b5f5f5f5f6080858703121561150a575f5ffd5b61151385611419565b935061152160208601611419565b925060408501359150606085013567ffffffffffffffff811115611543575f5ffd5b8501601f81018713611553575f5ffd5b803567ffffffffffffffff81111561156d5761156d6114e3565b604051601f8201601f19908116603f0116810167ffffffffffffffff8111828210171561159c5761159c6114e3565b6040528181528282016020018910156115b3575f5ffd5b816020840160208301375f6020838301015280935050505092959194509250565b602080825282518282018190525f918401906040840190835b8181101561160b5783518352602093840193909201916001016115ed565b509095945050505050565b5f5f60408385031215611627575f5ffd5b61163083611419565b915061163e60208401611419565b90509250929050565b600181811c9082168061165b57607f821691505b60208210810361167957634e487b7160e01b5f52602260045260245ffd5b50919050565b634e487b7160e01b5f52601160045260245ffd5b60ff818116838216019081111561030d5761030d61167f565b8082018082111561030d5761030d61167f565b634e487b7160e01b5f52603260045260245ffd5b5f81518060208401855e5f93019283525090919050565b5f6109776116f883866116d3565b846116d3565b5f6001820161170f5761170f61167f565b5060010190565b8181038181111561030d5761030d61167f565b634e487b7160e01b5f52601260045260245ffd5b5f8261174b5761174b611729565b500490565b5f8261175e5761175e611729565b500690565b6001600160a01b03858116825284166020820152604081018390526080606082018190525f90611795908301846113c2565b9695505050505050565b5f602082840312156117af575f5ffd5b81516107fc81611392565b634e487b7160e01b5f52603160045260245ffdfea26469706673582212200aa65d98cd9a5fed45d213022f0aa1501faa0a8149adfe1e937ea1ee8708871b64736f6c634300081c0033",
  "linkReferences": {},
  "deployedLinkReferences": {},
  "immutableReferences": {},
  "inputSourceName": "project/contracts/CZToken.sol",
  "buildInfoId": "solc-0_8_28-7c33cbd71d9fc95607b01c28de0816b4942f9b24"
}